cd bin

echo "安装合约"
./cmc client sendrawtransaction 0xf90667808502cb4178008344aa208080b9061460606040526b019d971e4fe8401e74000000600355341561001f57600080fd5b600354600160a060020a033316600081815260208190526040808220849055919290917fddf252ad1be2c89b69c2b068fc378daa952ba7f163c4a11628f55a4df523b3ef91905190815260200160405180910390a3610591806100836000396000f3006060604052600436106100985763ffffffff7c010000000000000000000000000000000000000000000000000000000060003504166306fdde03811461009d578063095ea7b31461012757806318160ddd1461015d57806323b872dd14610182578063313ce567146101aa57806370a08231146101d357806395d89b41146101f2578063a9059cbb14610205578063dd62ed3e14610227575b600080fd5b34156100a857600080fd5b6100b061024c565b60405160208082528190810183818151815260200191508051906020019080838360005b838110156100ec5780820151838201526020016100d4565b50505050905090810190601f1680156101195780820380516001836020036101000a031916815260200191505b509250505060405180910390f35b341561013257600080fd5b610149600160a060020a0360043516602435610283565b604051901515815260200160405180910390f35b341561016857600080fd5b6101706102f0565b60405190815260200160405180910390f35b341561018d57600080fd5b610149600160a060020a03600435811690602435166044356102f6565b34156101b557600080fd5b6101bd610426565b60405160ff909116815260200160405180910390f35b34156101de57600080fd5b610170600160a060020a036004351661042b565b34156101fd57600080fd5b6100b0610446565b341561021057600080fd5b610149600160a060020a036004351660243561047d565b341561023257600080fd5b610170600160a060020a036004358116906024351661053a565b60408051908101604052600a81527f48756f6269546f6b656e00000000000000000000000000000000000000000000602082015281565b600160a060020a03338116600081815260016020908152604080832094871680845294909152808220859055909291907f8c5be1e5ebec7d5bd14f71427d1e84f3dd0314c0f7b2291e5b200ac8c7c3b9259085905190815260200160405180910390a35060015b92915050565b60035481565b600160a060020a03808416600081815260016020908152604080832033909516835293815283822054928252819052918220548390108015906103395750828110155b801561035f5750600160a060020a03841660009081526020819052604090205483810110155b1561041957600160a060020a03808516600090815260208190526040808220805487019055918716815220805484900390556000198110156103c957600160a060020a03808616600090815260016020908152604080832033909416835292905220805484900390555b83600160a060020a031685600160a060020a03167fddf252ad1be2c89b69c2b068fc378daa952ba7f163c4a11628f55a4df523b3ef8560405190815260200160405180910390a36001915061041e565b600091505b509392505050565b601281565b600160a060020a031660009081526020819052604090205490565b60408051908101604052600281527f4854000000000000000000000000000000000000000000000000000000000000602082015281565b600160a060020a0333166000908152602081905260408120548290108015906104c05750600160a060020a03831660009081526020819052604090205482810110155b1561053257600160a060020a033381166000818152602081905260408082208054879003905592861680825290839020805486019055917fddf252ad1be2c89b69c2b068fc378daa952ba7f163c4a11628f55a4df523b3ef9085905190815260200160405180910390a35060016102ea565b5060006102ea565b600160a060020a039182166000908152600160209081526040808320939094168252919091522054905600a165627a7a72305820c129bd269d0adfb45f74a1d569e7170c49140570d880849318201de68509f99d002926a071ec32b2e6205164b2e1ffdeb27f68bcfda389d9229192bc973c597182ea66eaa04e47db35ee3dae0e68800b3869db9dfc9515d80c778569f687e1207538ef9391 --sdk-conf-path=../config/sdk_config.yml  --sync-result=true

echo "ERC20转账"
./cmc client sendrawtransaction 0xf8aa018502540be40083015f90946f259637dcd74c767781e37bc6133cd6a68aa16180b844a9059cbb00000000000000000000000054244e76fcf5c91ef149c5e6bfd0ebcc257cca1000000000000000000000000000000000000000000000000ad78ebc5ac620000025a0c485f22ae1fc23418f5ab37763df69c10c33e0e463994b1c3fd1984649603dbfa031449de06ca145955371efecac642bb264fe032321a2741b0a5a86b7994f0a2f --sdk-conf-path=../config/sdk_config.yml  --sync-result=true
echo "查询余额"
./cmc client contract user get --contract-name=0x6f259637dcd74c767781e37bc6133cd6a68aa161 --method=balanceOf --sdk-conf-path=../config/sdk_config.yml --abi-file-path=../../testdata/erc20.abi --params='[{"address":"0xcba472d0fe169e5632f217b3c00e9225165dea6e"}]'

./cmc client contract user get --contract-name=0x6f259637dcd74c767781e37bc6133cd6a68aa161 --method=balanceOf --sdk-conf-path=../config/sdk_config.yml --abi-file-path=../../testdata/erc20.abi --params='[{"address":"0x54244e76fcf5c91ef149c5e6bfd0ebcc257cca10"}]'


echo "Mint ETHToken 10亿"
./cmc client contract user invoke --contract-name=ETHEREUM --method=Mint --sdk-conf-path=../config/sdk_config.yml --params='{"account": "0x54244e76fcf5c91ef149c5e6bfd0ebcc257cca10","amount": "1000000000000000000000000000"}' --sync-result=true
echo "查询ETHToken余额"
./cmc client contract user get --contract-name=ETHEREUM --method=BalanceOf --sdk-conf-path=../config/sdk_config.yml --result-to-string=true --params='{"account":"0x54244e76fcf5c91ef149c5e6bfd0ebcc257cca10"}'
./cmc client contract user get --contract-name=ETHEREUM --method=BalanceOf --sdk-conf-path=../config/sdk_config.yml --result-to-string=true --params='{"account":"0x291471887e746158c3b020e3020f9104f9fedef9"}'

echo "0x54244e76fcf5c91ef149c5e6bfd0ebcc257cca10 转450 ETHToken To 0x291471887e746158c3b020e3020f9104f9fedef9" #TxHash: 775a5a8798f8df9bbd7fa1aa41aceb176805585010b7c4a5efaf16a99fe95aa7
./cmc client sendrawtransaction 0xf86d4d85028fa6ae0082520894291471887e746158c3b020e3020f9104f9fedef989022b1c8c1227a000008026a0ee0fd756864d5bdd14c2f3a7f978010cbc2f22fe3d3a42704e6d906a07e98a6da02ae7ab7c534086725c85d48d0f9cc952b8ac9fb381d224fdd965d5cce0d4b6fb --sdk-conf-path=../config/sdk_config.yml  --sync-result=true
echo "查询ETHToken余额"
./cmc client contract user get --contract-name=ETHEREUM --method=BalanceOf --sdk-conf-path=../config/sdk_config.yml --result-to-string=true --params='{"account":"0x54244e76fcf5c91ef149c5e6bfd0ebcc257cca10"}'
./cmc client contract user get --contract-name=ETHEREUM --method=BalanceOf --sdk-conf-path=../config/sdk_config.yml --result-to-string=true --params='{"account":"0x291471887e746158c3b020e3020f9104f9fedef9"}'

echo "查询Nonce =1"
./cmc client contract user get --contract-name=ETHEREUM --method=Nonce --sdk-conf-path=../config/sdk_config.yml --result-to-string=true --params='{"account":"0x54244e76fcf5c91ef149c5e6bfd0ebcc257cca10"}'

./cmc client sendrawtransaction 0xf86c4e8502540be400825208944fdf7d2b73ba8522e6bf358165bac12503f3f9d1888b67024780cc80008025a08676409e3d848eeff949bb1ab69bda98aa08ed53331bf7a50c76f329953c51e1a055605f9b761badc48cace9d278257e34d9f35ca95b841d35bc90968f9e74aed8 --sdk-conf-path=../config/sdk_config.yml  --sync-result=true
echo "查询Nonce =2"

./cmc client contract user get --contract-name=ETHEREUM --method=Nonce --sdk-conf-path=../config/sdk_config.yml --result-to-string=true --params='{"account":"0x54244e76fcf5c91ef149c5e6bfd0ebcc257cca10"}'

